S01700004763634170706C69636174696F6E352E7372656357
S11300000C942A000C9434000C9434000C943400A6
S11300100C9434000C9434000C9434000C9434008C
S11300200C9434000C9434000C9434000C9434007C
S11300300C9434000C9434000C9434000C9434006C
S11300400C9434000C9434000C9434000C9434005C
S11300500C94340011241FBECFE5D8E0DEBFCDBF21
S11300600E9436000C9453000C9400008FEF84BB64
S113007028E030E081E085BB880F4FEF53EC99E036
S1130080415050409040E1F700C000002150310938
S113009091F72FEF43EC59E0215040405040E1F7F5
S10D00A000C00000E5CFF894FFCF84
S9030000FC
