S01700007461736B322032362E392E323032302E7372656347
S11300000C942A000C9434000C9434000C943400A6
S11300100C9434000C9434000C9434000C9434008C
S11300200C9434000C9434000C9434000C9434007C
S11300300C9434000C9434000C9434000C9434006C
S11300400C9434000C9434000C9434000C9434005C
S11300500C94340011241FBECFE5D8E0DEBFCDBF21
S11300600E9468000C947F000C9400009BB321E074
S113007030E002C0220F331F8A95E2F729272BBBF9
S1130080089599B321E030E002C0220F331F8A950E
S1130090E2F7292B81E090E0232B11F480E090E03B
S11300A008959BB321E030E002C0220F331F8A95EC
S11300B0E2F7292B2BBB08959BB321E030E002C06B
S11300C0220F331F8A95E2F7209529232BBB08952D
S11300D0C0E1CABB17BA83E090E00E94360084E016
S11300E090E00E944100892B29F083E090E00E9477
S11300F05100EFCF83E090E00E945C00EACFF894D7
S1050100FFCF2B
S9030000FC
